:100000000C9460000C947D000C947D000C947D0099
:100010000C947D000C947D000C947D000C947D006C
:100020000C947D000C947D000C947D000C947D005C
:100030000C947D000C947D000C947D000C947D004C
:100040000C947D000C947D000C947D000C947D003C
:100050000C947D000C947D000C947D000C947D002C
:100060000C947D000C947D00810585058A058F0523
:10007000940599059E05A305A805AD05B205B7052C
:10008000BC05C105C605CB05D005D505DA05DF05DC
:10009000E405E905EE05ED07F70703080F081B085F
:1000A000270833083F084B08590867087508830874
:1000B00091089F08AD08BB08C908D708E708F708EA
:1000C00011241FBECFEFD4E0DEBFCDBF12E0A0E011
:1000D000B1E0EAEDFFE102C005900D92A039B10751
:1000E000D9F712E0A0E9B2E001C01D92A439B1072E
:1000F000E1F70E947F000C94EB0F0C9400000F932B
:100100001F93CF93DF93CDB7DEB7C75FD1400FB654
:10011000F894DEBF0FBECDBF8CE0E6E0F1E0DE017B
:10012000A951BE4F01900D928A95E1F78EE791E0BB
:10013000E2E1F1E0DE01119601900D920197E1F705
:1001400004E620E030E0A90168E0CE0181589E4F2E
:100150000E9410040E94830A0E94B90A8E010F5F58
:100160001F4F20E031E040E050E060E070E0CB0164
:100170000E94F30A0E94460B0E94B90A8E010F5F8B
:100180001E4F20E031E040E050E060E071E080E0B0
:1001900090E00E94F30A0E94460BCE0181589E4FC8
:1001A0000E941C05CE018D509E4F0E947F0BCE01F8
:1001B00081589E4F0E942E0411E038C0CA50DE4F75
:1001C0006881C65FD1406F5FCE0181589E4F0E940B
:1001D0002B0ACE018D509E4F0E94AA0BCD50DE4FB0
:1001E00088819981C35FD140853F914030F4CE0131
:1001F0008D509E4F0E94970B19C0CE018D509E4F7F
:100200000E94A10B882339F060E8CE0181589E4FEF
:100210000E942B0A6AC1CB50DE4F1883C55FD140C4
:10022000CD50DE4F19821882C35FD140CB50DE4FD4
:100230008881C55FD140882309F2CA50DE4F88818A
:10024000C65FD140823009F4DEC0833009F414C1A6
:10025000813009F04AC1CA50DE4F1882C65FD140D2
:10026000CD50DE4F19821882C35FD140C951DE4F95
:1002700088819981C75ED140A0E0B0E0C158DE4FCF
:1002800088839983AA83BB83CF57D140CD57DE4F54
:1002900088839983AA83BB83C358D140A3C0C55721
:1002A000DE4F88819981CB58D140C354DE4F68819D
:1002B0007981CD5BD1400E94F60D892B79F4CE0176
:1002C00081589E4F0E946005CE0181589E4F0E942A
:1002D000050ACE0181589E4F0E942E0461E070E015
:1002E000CE0181589E4F0E943304C557DE4F88814E
:1002F0009981CB58D1400196C557DE4F99838883A9
:10030000CB58D140CE0181589E4F0E944304CE016C
:100310008D509E4F0E94900B882371F0CD50DE4F80
:1003200088819981C35FD1400196CD50DE4F99837A
:100330008883C35FD14056C0CD50DE4F88819981FC
:10034000C35FD1400B978D3D934008F045C0CA5024
:10035000DE4F8881C65FD1408F5F863031F0CA5052
:10036000DE4F8883C65FD14005C0CA50DE4F188279
:10037000C65FD140CA50DE4FE881C65FD140EE0F64
:10038000FF0B87EE91E08C0F9D1FE80FF91F808116
:100390009181A0E0B0E0C158DE4F88839983AA83A1
:1003A000BB83CF57D140CD57DE4F88839983AA8333
:1003B000BB83C358D140CE0181589E4F0E94E504B3
:1003C000C354DE4F88819981CD5BD140C557DE4F44
:1003D00099838883CB58D140CD50DE4F1982188243
:1003E000C35FD140CD50DE4F88819981C35FD1403A
:1003F000883E934008F453CF60E8CE0181589E4F69
:100400000E942B0A72C081E0CA50DE4F8883C65F0B
:10041000D14011E0CA50DE4F6881C65FD140CE01A5
:1004200081589E4F0E942B0ACE018D509E4F0E94F4
:10043000AA0BCD50DE4F88819981C35FD1408C3D9E
:10044000954098F4CA50DE4F8881C65FD1408F5FD7
:10045000CA50DE4F8883C65FD1408531DCF2CA5076
:10046000DE4F1883C65FD140D5CF60E8CE018158FA
:100470009E4F0E942B0A39C0C557DE4F8881998153
:10048000CB58D140C354DE4F68817981CD5BD140D8
:100490000E94F60D892B79F4CE0181589E4F0E945F
:1004A0006005CE0181589E4F0E94050ACE018158F9
:1004B0009E4F0E942E0461E070E0CE0181589E4F55
:1004C0000E943304C557DE4F88819981CB58D140B3
:1004D0000196C557DE4F99838883CB58D140CE0112
:1004E00081589E4F0E944304C7CFCE0186529E4F33
:1004F0000E949E0280E090E0C950DE4F0FB6F89453
:10050000DEBF0FBECDBFDF91CF911F910F91089538
:10051000CF93DF93EC016A83862F880F860F8B833E
:100520002BE230E03B872A8794E09C8790E00E9492
:10053000B40E88839983DF91CF910895CF93DF9391
:10054000EC0188819981009711F00E944F0F9AB1B8
:100550008C85809589238AB9DF91CF9108953AB12E
:10056000FC012485232B2AB92BB184858095822315
:100570008BB9089562957295707F7627607F762794
:100580006115710519F061507109E9F70895AF928D
:10059000BF92CF92DF92EF92FF921F93CF93DF93A0
:1005A000CDB7DEB727970FB6F894DEBF0FBECDBF2D
:1005B0005C01DC012D913C91232B09F444C0F8949B
:1005C000FC01238130E03A83298320813181D901E4
:1005D0004D919D014F83A285B3855C914485542B39
:1005E0005E835C91409545234D834D814C8348E06B
:1005F0004B837E811D816F815B814C81E981FA8112
:100600007F01FD01C701D901708367FD472F5A950E
:100610004083412F39F0661F00C0000010830000A6
:1006200000C0F2CF58E06D9110830000019761F790
:10063000D5011B96FC93EE931A976F835B834C83D3
:100640009A838983789427960FB6F894DEBF0FBEFD
:10065000CDBFDF91CF911F91FF90EF90DF90CF90B2
:10066000BF90AF9008950F93FC01828190E06817CE
:10067000790718F58581882399F090E0489FD0018B
:10068000499FB00D11244B2F289FD001299FB00DF9
:1006900011242B2F089FD001099FB00D11240B2F7F
:1006A000CB01880F991F680F791F0190F081E02D11
:1006B000E60FF71F2083418302830F9108950F9364
:1006C000FC01CB01880F991F680F791FCB010196A0
:1006D000A081B181A80FB91F3C91842F992787FD74
:1006E0009095830F911D01978E3F910510F4430F54
:1006F0004C93A081B181A60FB71F3C91822F9927FF
:1007000087FD9095830F911D01978E3F910510F401
:10071000230F2C936E5F7F4F0190F081E02DE60F49
:10072000F71F2081802F992787FD9095820F911DBB
:1007300001978E3F910510F4020F00830F910895E9
:100740000F931F93DC0112962C9112976217B8F445
:1007500070E0FB01EE0FFF1F6E0F7F1FED91FC910C
:10076000E60FF71F008110E020E030E0322F212F4C
:10077000102F00278281082B8181282B03C000E0E5
:1007800010E09801602F712F822F932F1F910F91EE
:100790000895FC01808191810895FF920F931F932A
:1007A000CF93DF938C01F62EF394FC0125812F1556
:1007B00089F1C081D1812150A9F06F3F51F430E01F
:1007C00040E050E06FEF7FEF80E090E00E941E0E6F
:1007D0000BC09F2D80E00197622F70E00E94F60D04
:1007E0009B0102C020E030E0F8018381882381F082
:1007F00080E090E06881629FA001639F500D11240A
:1008000059930196F801438150E08417950790F3BE
:10081000F801F582DF91CF911F910F91FF9008951C
:100820000F93FC012083318342835383148215820A
:1008300016821782108611861286138615861486F4
:10084000DC01A05CBF4F6C93DC01AE5BBF4F0C932F
:10085000855A9F4F0E9488020F910895855A9F4F95
:100860000E94C70208951616170664F480E090E00F
:10087000EFE9FFE03197F1F700C00000019686171D
:100880009707B1F708958F929F92AF92BF92CF9240
:10089000DF92EF92FF920F931F93CF93DF93EC01C0
:1008A000FC01EF5BFF4F1082FC01E05CFF4F808199
:1008B000882309F47AC0812C912C5E018BE5A80E67
:1008C000B11C7E01E1E4EE0EF11C6E01F0E4CF0EEE
:1008D000D11C0C851D85E82DF0E0DF01AA0FBB1FA0
:1008E000AE0FBF1FAA0FBB1FAC0FBD1F1E966D9191
:1008F0007C911F97C8010E94F60D892B59F4DF01E6
:10090000AA0FBB1FAE0FBF1FAC0FBD1FAD5BBF4F0C
:100910004C9101C0492DDF01AA0FBB1FAE0FBF1FB5
:10092000AA0FBB1FAC0FBD1F50966D917C915197C4
:10093000C8010E94F60D892B59F4DF01AA0FBB1FD5
:10094000AE0FBF1FAC0FBD1FAC5BBF4F2C9101C0E2
:10095000292DDF01AA0FBB1FAE0FBF1FAA0FBB1FA0
:10096000AC0FBD1F52966D917C915397C8010E94A8
:10097000F60D892B59F4CF01880F991FE80FF91F45
:10098000EC0FFD1FEB5BFF4F008101C0092D682DAF
:10099000792DC5010E945F03F701808083948082D6
:1009A000F6018081881608F494CFCE010E942E04AF
:1009B000DF91CF911F910F91FF90EF90DF90CF903B
:1009C000BF90AF909F908F900895CF93DF93FC01DD
:1009D000EF5BFF4F1082FC01E05CFF4F508155231D
:1009E00019F1DC01FC01EB5BFF4F40E02CED3FEF28
:1009F0001F963C932E931E9751963C932E9350979F
:100A000053963C932E935297EF0122971882EF0151
:100A10002197188210824F5F16963396451740F340
:100A2000FC01EF5BFF4F4083DF91CF910895855A22
:100A30009F4F0E94CD030895CF93DF93EC01855A19
:100A40009F4F0E94AF02FE01EE5BFF4F6081CE011F
:100A50000E941705DF91CF910895FC01EF5BFF4FD6
:100A6000E081F0E09F01220F331FE20FF31F9C0192
:100A70002E0F3F1FD901AD5BBF4F1C92D901AC5B5C
:100A8000BF4F1C92D901AB5BBF4F1C92EE0FFF1FF3
:100A9000E80FF91F2CED3FEF37872687318B208B2E
:100AA000338B228BFC0144815581668177814F5FB6
:100AB0005F4F6F4F7F4F44835583668377830895DD
:100AC0000F931F93CF93DF93EC016C817D818E8117
:100AD0009F818B019C010F5F1F4F2F4F3F4F0C8356
:100AE0001D832E833F830E94DB0AE82FFF27E7FD4B
:100AF000F095E731F10508F075C0EC5CFF4F0C9400
:100B00003A0ECE010E94F9056FC081E090E09FAFE0
:100B10008EAF68C082E090E09FAF8EAF63C084E08C
:100B200090E09FAF8EAF5EC088E090E09FAF8EAF49
:100B300059C08FE090E09FAF8EAF54C089E190E044
:100B40009FAF8EAF4FC082E390E09FAF8EAF4AC0A1
:100B50008BE490E09FAF8EAF45C084E690E09FAFFE
:100B60008EAF40C08AEF90E09FAF8EAF3BC084EF66
:100B700091E09FAF8EAF36C08EEE92E09FAF8EAF0A
:100B800031C088EE93E09FAF8EAF2CC08CED95E026
:100B90009FAF8EAF27C080ED97E09FAF8EAF22C092
:100BA00084EC99E09FAF8EAF1DC088EB9BE09FAFB8
:100BB0008EAF18C08CEA9DE09FAF8EAF13C080EA65
:100BC0009FE09FAF8EAF0EC088E893E19FAF8EAFDE
:100BD00009C08CE49DE19FAF8EAF04C080E197E235
:100BE0009FAF8EAF1D861C86DF91CF911F910F9115
:100BF0000895CF93DF93EC01488159816A817B810D
:100C00004C835D836E837F831D861C8618861986C0
:100C10001A861B860E94E504CE010E946005DF91C2
:100C2000CF910895FC0126AD37AD243FF1E03F0799
:100C300009F4C2C078F52F30310509F481C098F469
:100C40002230310509F467C028F42130310509F05C
:100C500036C15AC02430310509F464C0283031054A
:100C600009F02DC166C02B34310509F48AC048F45F
:100C70002931310509F46FC02233310509F01FC154
:100C800075C02436310509F483C02A3F310509F0C7
:100C900016C187C0283BFBE03F0709F4CFC0D0F462
:100CA0002C3DF5E03F0709F4A8C050F42E3EF2E0D9
:100CB0003F0709F48CC0283E334009F000C192C0C0
:100CC000203DF7E03F0709F4A3C0243C394009F078
:100CD000F6C0A9C02838F3E13F0709F4D0C050F4AA
:100CE0002C3AFDE03F0709F4B4C0203A3F4009F038
:100CF000E6C0BAC02C34FDE13F0709F4CBC0203177
:100D0000374209F0DCC0D1C0FA0111821082FB0128
:100D100011821082D4C0FA0111821082FB0111826B
:100D20001082CDC0FA0111821082FB011182108263
:100D3000C6C0FA0111821082FB0111821082BFC06D
:100D400028E030E0FA013183208321E030E0FB012C
:100D500031832083B4C024E030E0FA013183208362
:100D600021E030E0FB0131832083A9C022E030E0A4
:100D7000FA013183208321E030E0FB0131832083BD
:100D80009EC0FA0111821082FB011182108297C06D
:100D900021E030E0FA0131832083FB01318320839D
:100DA0008EC022E030E0FA013183208325E030E07C
:100DB000FB013183208383C021E030E0FA013183DD
:100DC000208325E030E0FB013183208378C022E0DE
:100DD00030E0FA01318320832FE030E0FB013183E2
:100DE00020836DC021E030E0FA01318320832AE0C6
:100DF00030E0FB013183208362C021E030E0FA0162
:100E0000318320832FE030E0FB013183208357C002
:100E100021E030E0FA013183208324E130E0FB015E
:100E2000318320834CC021E030E0FA0131832083FC
:100E300029E130E0FB013183208341C021E030E033
:100E4000FA01318320832EE130E0FB0131832083DE
:100E500036C021E030E0FA013183208323E230E024
:100E6000FB01318320832BC021E030E0FA01318384
:100E7000208328E230E0FB013183208320C021E081
:100E800030E0FA013183208322E330E0FB0131833B
:100E9000208315C021E030E0FA01318320832BE468
:100EA00030E0FB01318320830AC021E030E0FA0109
:100EB0003183208324E630E0FB0131832083FC0171
:100EC000EE5BFF4F8081883C41F4FA018081918183
:100ED000880F991F918380830895823339F4FB0131
:100EE00080819181880F991F918380830895AF92AB
:100EF000BF92CF92DF92EF92FF920F931F93CF9307
:100F0000DF9300D000D0CDB7DEB77C018B01B42ECB
:100F1000112324F466277727601B710BC62ED72E6A
:100F2000882777FD8095982F0E94000C20E030E004
:100F3000A9010E94D10B8823A9F1AE014F5F5F4F39
:100F4000BE016D5F7F4FC7010E941206F701EF5B84
:100F5000FF4FE081F0E02B2D30E0CF01880F991F8B
:100F6000E80FF91F5701AE0EBF1EA20EB31E83E499
:100F7000A80EB11CC8016C2D7D2D0E940A0E89811E
:100F8000869F602D1124D5016C932E0F3F1F295F82
:100F90003F4F220F331FF701E20FF31F8B819C811C
:100FA000918380830F900F900F900F90DF91CF91DE
:100FB0001F910F91FF90EF90DF90CF90BF90AF9077
:100FC00008950F930F73E02FF0E0E531F10508F07D
:100FD0001DC1E55BFF4F0C943A0EFB01118210829C
:100FE000FA0111821082F901118210820FC18FEF74
:100FF00090E0FB0191838083FA0191838083F90162
:101000009183808303C18FEF90E0FB019183808304
:10101000FA0111821082F90111821082F7C0FB01DE
:10102000118210828FEF90E0FA0191838083F901A1
:1010300011821082EBC0FB0111821082FA01118231
:1010400010828FEF90E0F90191838083DFC08FEFF2
:1010500090E0FB0191838083FA0191838083F90101
:1010600011821082D3C08FEF90E0FB0191838083C7
:10107000FA0111821082F90191838083C7C0FB01BC
:10108000118210828FEF90E0FA0191838083F90141
:1010900091838083BBC088EC90E0FB0191838083C7
:1010A000FA01918380838CE390E0F901918380833E
:1010B000ADC0FB011182108284E690E0FA019183B9
:1010C00080838FEF90E0F901918380839FC08FEF41
:1010D00090E0FB019183808382E390E0FA019183A9
:1010E0008083F9011182108291C08FEF90E0FB01A3
:1010F0009183808388E790E0FA0191838083F901EE
:101100001182108283C080E590E0FB01918380838F
:101110008FEF90E0FA0191838083F90111821082B0
:1011200075C08CE890E0FB01918380838FEF90E0A5
:10113000FA0191838083F9011182108267C08AEAE3
:1011400090E0FB01918380838FEF90E0FA0191831F
:101150008083F9011182108259C08EE690E0FB0174
:1011600091838083FA01118210828FEF90E0F90160
:10117000918380834BC086E490E0FB019183808360
:10118000FA01118210828FEF90E0F9019183808340
:101190003DC08FEF90E0FB01918380838AEA90E06D
:1011A000FA0191838083F901918380832FC08FEFAF
:1011B00090E0FB019183808386E490E0FA019183C3
:1011C000808382E890E0F901918380831FC08FEFD4
:1011D00090E0FB01918380838EEB90E0FA01918394
:1011E00080838BE490E0F901918380830FC08FEFBF
:1011F00090E0FB019183808387E890E0FA0191837E
:10120000808383E290E0F901918380830F910895B8
:10121000EF92FF920F931F93CF93DF93CDB7DEB77B
:101220002C970FB6F894DEBF0FBECDBF7C01FC013A
:1012300064817581868197818B019C010F5F1F4FAF
:101240002F4F3F4F04831583268337830E94DB0A89
:10125000082F9E01295F3F4FAE01475F5F4FBE01E0
:10126000655F7F4FC7010E94E107F701EF5BFF4F0A
:1012700060810F8129854B8570E0C701855A9F4F9A
:101280000E943303F70164817581868197818B0108
:101290009C010F5F1F4F2F4F3F4F04831583268301
:1012A00037830E94DB0A082F9E012F5F3F4FAE015C
:1012B0004D5F5F4FBE016B5F7F4FC7010E94E1072B
:1012C0006D817E818B859C85681B790B40E0C70111
:1012D0000E9477076B817C8189859A85681B790BD1
:1012E00041E0C7010E94770769817A818F819885E3
:1012F000681B790B42E0C7010E9477072C960FB656
:10130000F894DEBF0FBECDBFDF91CF911F910F913B
:10131000FF90EF900895EF92FF920F931F93CF935A
:10132000DF9300D000D000D0CDB7DEB77C01FC0148
:1013300064817581868197818B019C010F5F1F4FAE
:101340002F4F3F4F04831583268337830E94DB0A88
:10135000082F9E012F5F3F4FAE014D5F5F4FBE01D3
:101360006B5F7F4FC7010E94E107F701EF5BFF4F03
:10137000608109812B814D8170E0C701855A9F4FA3
:101380000E94330326960FB6F894DEBF0FBECDBF82
:10139000DF91CF911F910F91FF90EF900895CF9320
:1013A000DF93EC016C817D818E819F810E94DB0A3D
:1013B000807C90E08034910591F01CF4892B41F001
:1013C00021C080389105B9F0803C9105D9F417C04F
:1013D000CE010E942D05CE010E94CF0913C08C8141
:1013E0009D81AE81BF810196A11DB11D8C839D831E
:1013F000AE83BF8307C0CE010E948B0903C0CE011C
:101400000E940809DF91CF910895EF92FF920F9308
:101410001F93CF93DF938C01FC01EF5BFF4F108292
:10142000FC01E05CFF4F8081882371F0E801CF5B15
:10143000DF4F7F01C8010E94CF0988818F5F8883B9
:10144000F70190818917B0F3DF91CF911F910F9130
:10145000FF90EF9008958F929F92AF92BF92CF929C
:10146000DF92EF92FF920F93CF93DF9300D000D0E3
:1014700000D0CDB7DEB74C01062F9E012F5F3F4F46
:10148000AE014D5F5F4FBE016B5F7F4F0E94E10772
:10149000F401EF5BFF4F1082F401E05CFF4F8081AD
:1014A0008823E1F060E054018BE5A80EB11C7401C3
:1014B000E1E4EE0EF11C6401F0E4CF0ED11C0981D1
:1014C0002B814D8170E0C5010E943303F7016081DB
:1014D0006F5F6083F6018081681788F3C4010E9402
:1014E0002E0426960FB6F894DEBF0FBECDBFDF9157
:1014F000CF910F91FF90EF90DF90CF90BF90AF9082
:101500009F908F900895549A5C9A84B18C6284B9AC
:10151000249881E58CBD08958EBD0DB407FEFDCFE6
:101520000895CF93DF93C62FD72F0E948C0A8D2F5B
:101530000E948C0A8C2F0E948C0ADF91CF91089513
:101540005C9889EB0E948C0A5C9A08955C988BEAFF
:101550000E948C0A80E00E948C0A80E00E948C0A23
:1015600080E00E948C0A80E00E948C0A5C9A8EB512
:1015700008955C9886E00E948C0A5C9A08955C98B5
:1015800084E00E948C0A5C9A08955C9885E00E9431
:101590008C0A80E00E948C0A5C9A8EB50895CF93E5
:1015A000C82F5C9881E00E948C0A8C2F0E948C0AC4
:1015B0005C9ACF910895CF92DF92EF92FF926B01E8
:1015C0007C015C9883E00E948C0AC701B6010E94EE
:1015D000910A80E00E948C0A5C9A8EB5FF90EF9091
:1015E000DF90CF9008958F929F92AF92BF92CF924B
:1015F000DF92EF92FF920F931F93CF93DF936B01D4
:101600007C0149015A01E8015C9882E00E948C0A41
:10161000C701B6010E94910A81149104A104B1048A
:1016200081F0C12CD12C760189910E948C0A8FEF18
:10163000C81AD80AE80AF80AC814D904EA04FB044C
:1016400099F75C9ADF91CF911F910F91FF90EF90E6
:10165000DF90CF90BF90AF909F908F9008950F93A1
:101660001F93CF93DF931F92CDB7DEB749838E01CF
:101670000F5F1F4F21E030E040E050E00E94F30A8E
:101680000F90DF91CF911F910F9108950E94C50A8D
:1016900080FDFCCF0895CF92DF92EF92FF926B0115
:1016A0007C010E94B90A5C9882E40E948C0AC701FE
:1016B000B6010E94910A5C9AFF90EF90DF90CF9064
:1016C0000895CF92DF92EF92FF926B017C010E940E
:1016D000B90A5C9888ED0E948C0AC701B6010E9485
:1016E000910A5C9AFF90EF90DF90CF9008950E944E
:1016F000B90A5C9887EC0E948C0A5C9A0895CF9393
:10170000DF93EC012098289A81E08B831A8260E0B5
:1017100070E0CB010E94DB0A8C83DF91CF910895AA
:1017200083B180958170089583B181700895FC0123
:1017300083818F5F83839481981714F481E083837E
:101740000895FC0181E0208131812C3D354008F471
:1017500080E00895CF93DF93EC0119821882CE01C7
:101760000E94900B8823D9F30BC08FE99FE001976B
:10177000F1F700C0000088819981019699838883E0
:10178000CE010E94A10B811105C0CE010E94940BD5
:10179000882359F3888199814F97F8F2DF91CF918F
:1017A0000895A8E1B0E0E7EDFBE00C94720E6D8BBC
:1017B0007E8B8F8B988F298B3A8B4B8B5C8BBE01EA
:1017C000675F7F4FCE0145960E94260DBE016F5F79
:1017D0007F4FCE0141960E94260D8985823058F0B8
:1017E0008981823040F0BE016F5F7F4FCE01099644
:1017F0000E94950D01C081E06896E2E00C948E0E87
:10180000A8E0B0E0E6E0FCE00C94700E23E0298351
:101810008B019C01002737FD0395112722273327D1
:10182000402F0A83611571058105910519F482E045
:10183000898335C02EE130E03C832B83442371F053
:1018400061157105810520E8920771F100271127C4
:101850009801061B170B280B390B02C08B019C014A
:10186000C901B8010E94990E0197181619062CF0AB
:101870000D831E832F83388712C0082E04C0000FEB
:10188000111F221F331F0A94D2F70D831E832F834B
:1018900038872EE130E0281B390B3C832B83CE01A7
:1018A00001960E945C0C04C060E070E080E09FEC58
:1018B0002896E4E00C948C0E0F931F93CF93DF9344
:1018C000DC0114964D915D916D917C911797119665
:1018D000EC9111978C91823020F460618FEF90E051
:1018E000A6C0843009F49EC0823009F495C0411529
:1018F00051056105710509F492C012962D913C9134
:10190000139722388FEF38070CF058C0C2E8DFEF8A
:10191000C21BD30BCA31D1056CF58A019B010C2E79
:1019200004C036952795179507950A94D2F781E05C
:1019300090E0A0E0B0E00C2E04C0880F991FAA1F11
:10194000BB1F0A94D2F70197A109B10984239523FB
:10195000A623B72341E050E060E070E0892B8A2B9A
:101960008B2B19F440E050E0BA01402B512B622B35
:10197000732B03C040E050E0BA01DB01CA018F774E
:101980009927AA27BB2780349105A105B10539F411
:1019900047FF09C0405C5F4F6F4F7F4F04C0415C01
:1019A0005F4F6F4F7F4F81E090E04115510561051A
:1019B00020E4720748F580E090E026C02038310529
:1019C0008CF5DB01CA018F779927AA27BB278034C2
:1019D0009105A105B10539F447FF09C0405C5F4F8F
:1019E0006F4F7F4F04C0415C5F4F6F4F7F4F77FD5C
:1019F00004C0C90181589F4F07C0769567955795D8
:101A00004795C90180589F4F97E076956795579500
:101A100047959A95D1F70BC080E090E005C080E033
:101A200090E005C08FEF90E040E050E0BA01982FC1
:101A30009695E0FB97F9362F80FB37F9642F752FC9
:101A4000832FDF91CF911F910F910895CF92DF9255
:101A5000EF92DC01FB01CC901196DC90119712966D
:101A60008C9112973FE7E32EE8226E2DA60170E0DD
:101A7000982F991F9927991F13962C91822F880FC1
:101A8000892B90E027FB222720F92183009729F555
:101A9000411551056105710511F482E027C082E806
:101AA0009FEF9383828327E0440F551F661F771FA4
:101AB0002A95D1F783E0808309C0440F551F661F24
:101AC000771F82819381019793838283411551050A
:101AD000610580E4780788F320C08F3F910579F491
:101AE000411551056105710519F484E0808319C021
:101AF000E4FE03C081E0808310C010820EC08F57C7
:101B000091099383828383E0808387E0440F551F8C
:101B1000661F771F8A95D1F7706444835583668367
:101B20007783EF90DF90CF900895CF93FC01DB0196
:101B30009081923008F452C08C91823008F44EC0EB
:101B4000943071F4843039F411962C9130E0818115
:101B5000281B310948C08181882309F43FC03BC05C
:101B6000843029F411968C91811138C034C09230A0
:101B700019F48230B9F735C0823069F3C18111960A
:101B80008C911197C8131DC02281338112968D91BB
:101B90009C911397821793070CF413C028173907E9
:101BA0000CF417C0448155816681778114968D911C
:101BB0009D910D90BC91A02D84179507A607B7079E
:101BC00018F4C11108C00AC0481759076A077B07F3
:101BD00040F4C11103C02FEF3FEF05C021E030E01A
:101BE00002C020E030E0C901CF910895AA1BBB1BC1
:101BF00051E107C0AA1FBB1FA617B70710F0A61B0D
:101C0000B70B881F991F5A95A9F780959095BC012D
:101C1000CD01089597FB072E16F4009407D077FDA9
:101C200009D00E94F60D07FC05D03EF490958195F1
:101C30009F4F0895709561957F4F0895052E97FBEE
:101C400016F4009407D057FD0DD00E94400E07FCFB
:101C500009D07EF490958095709561957F4F8F4F58
:101C60009F4F089550954095309521953F4F4F4F88
:101C70005F4F0895EE0FFF1F0590F491E02D09943A
:101C8000A1E21A2EAA1BBB1BFD010DC0AA1FBB1F80
:101C9000EE1FFF1FA217B307E407F50720F0A21BF2
:101CA000B30BE40BF50B661F771F881F991F1A945F
:101CB00069F760957095809590959B01AC01BD0189
:101CC000CF0108952F923F924F925F926F927F9231
:101CD0008F929F92AF92BF92CF92DF92EF92FF923C
:101CE0000F931F93CF93DF93CDB7DEB7CA1BDB0BE8
:101CF0000FB6F894DEBF0FBECDBF09942A8839888D
:101D000048885F846E847D848C849B84AA84B98493
:101D1000C884DF80EE80FD800C811B81AA81B9819F
:101D2000CE0FD11D0FB6F894DEBF0FBECDBFED01B3
:101D300008950E94A20E84FF0895CB010E94A20E76
:101D4000805F0895AA27992329F4A85F982B11F49E
:101D500080E10895903118F4AD5F9295A395990FA5
:101D6000E8F78A2F992708950F931F93CF93DF9356
:101D70008230910510F482E090E0E0919202F091BF
:101D8000930220E030E0C0E0D0E023C040815181E8
:101D900048175907A8F04817590761F482819381C1
:101DA000209719F09B838A832EC09093930280938F
:101DB000920229C02115310529F04217530710F06E
:101DC000A90102C0BE01DF0102811381EF019A0166
:101DD000F8013097D9F62115310509F1281B390B87
:101DE0002430310590F412968D919C9113976115D2
:101DF000710521F0FB019383828304C090939302C9
:101E000080939202FD01329644C0FD01E20FF31F60
:101E100081939193225031092D933C933AC02091A4
:101E2000900230919102232B41F4209102013091D4
:101E30000301309391022093900220910001309190
:101E400001012115310541F42DB73EB74091040140
:101E500050910501241B350BE0919002F091910205
:101E6000E217F307A0F42E1B3F0B2817390778F071
:101E7000AC014E5F5F4F2417350748F04E0F5F1FD0
:101E800050939102409390028193919302C0E0E0BD
:101E9000F0E0CF01DF91CF911F910F910895EF9264
:101EA000FF920F931F93CF93DF93009709F48EC097
:101EB000DC01129713961C921E921297E0909202E8
:101EC000F0909302E114F10489F42D913C91119763
:101ED000280F391F809190029091910282179307E9
:101EE00089F5B0939102A093900270C0E70120E0C1
:101EF00030E001C0EA01CA17DB0738F44A815B8190
:101F00009E0141155105B1F722C0AC014250510963
:101F1000FA01D383C28300811181BC01600F711F5C
:101F20006C177D0761F468817981600F711F6E5FA6
:101F30007F4F718360836A817B8173836283211504
:101F4000310529F4B0939302A09392023FC0F901A6
:101F5000B383A283E90149915991C40FD51FAC17EE
:101F6000BD0771F4DC019E918E91840F951F02963E
:101F70009183808312968D919C9113979383828392
:101F8000A0E0B0E002C0D7017C01F701828193811B
:101F90000097C9F7C701029620813181820F931FF4
:101FA00020919002309191022817390779F4109707
:101FB00029F4109293021092920204C013961C927C
:101FC0001E921297F0929102E0929002CDB7DEB786
:0A1FD000E6E00C948A0EF894FFCFAF
:101FDA00000094022000010014004B007F00AD00B5
:101FEA002C0103028181818181818181038080802A
:101FFA00808080808000068282828282828282043D
:10200A00808080808080808006838383838383832B
:10201A008304808080808080808006848484848495
:10202A008484840480808080808080800011C2C380
:10203A00C2C3C2C3C2C3C2C3C2C3C2C3C2C311C31F
:10204A00C4C3C4C3C4C3C4C3C4C3C4C3C4C3C41100
:10205A00C4C2C4C2C4C2C4C2C4C2C4C2C4C2C4C246
:10206A0000029080808080808090028090808080B2
:10207A008090800280809080809080800280808022
:10208A0090908080800380808080808080800001A2
:10209A0082808080808080840180828080808084A9
:1020AA008001808082808084808001808080828418
:1020BA00808080018080808482808080018080840A
:1020CA0080808280800180848080808082800184F8
:1020DA00808080808080820180848080808082806D
:1020EA0001808084808082808001808080848280D8
:1020FA0080800180808082848080800180808280CC
:10210A008084808001808280808080848000058332
:10211A0083858585828282058385858582828283FD
:10212A00058585858282828383058585828282836D
:10213A008383058582828283838385058282828363
:10214A00838385850582828383838585850582834A
:10215A00838385858582058383838585858282003D
:00000001FF
